:020000040000fa
:080000000002040000000000f2
:020000040000fa
:100008008c0400008c0400008c0400008c040000a8
:100018008c0400008c0400008c0400008c04000098
:100028008c0400008c0400008c0400008c04000088
:100038008c0400008c0400008c0400008c04000078
:100048008c0400008c0400008c0400008c04000068
:100058008c0400008c0400008c0400008c04000058
:100068008c0400008c0400008c0400008c04000048
:100078008c0400008c0400008c0400008c04000038
:100088008c0400008c0400008c0400008c04000028
:10009800d20200008c0400008c0400008c040000d4
:1000a8008c0400008c0400008c0400008c04000008
:1000b8008c0400008c0400008c0400008c040000f8
:1000c8008c0400008c0400008c0400008c040000e8
:1000d8008c0400008c0400008c0400008c040000d8
:1000e8008c0400008c0400008c0400008c040000c8
:1000f8008c0400008c0400008c0400008c040000b8
:100108008c0400008c0400008c0400008c040000a7
:100118008c0400008c0400008c0400008c04000097
:100128008c0400008c0400008c0400008c04000087
:100138008c0400008c0400008c0400008c04000077
:100148008c0400008c0400008c0400008c04000067
:100158008c0400008c0400008c0400008c04000057
:100168008c0400008c0400008c0400008c04000047
:100178008c0400008c0400008c0400008c04000037
:100188008c0400008c0400008c0400008c04000027
:100198008c0400008c0400008c0400008c04000017
:1001a8008c0400008c0400008c0400008c04000007
:1001b8008c0400008c0400008c0400008c040000f7
:1001c8008c0400008c0400008c0400008c040000e7
:1001d8008c0400008c0400008c0400008c040000d7
:1001e8008c0400008c0400008c0400008c040000c7
:1001f8008c0400008c0400008c0400008c040000b7
:100208008c0400008c0400008c0400008c040000a6
:100218008c0400008c0400008c0400008c04000096
:100228008c0400008c0400008c0400008c04000086
:100238008c0400008c0400008c0400008c04000076
:100248008c0400008c0400008c0400008c04000066
:100258008c0400008c0400008c0400008c04000056
:100268008c0400008c0400008c0400008c04000046
:0c0278008c0400008c0400008c040000ca
:020000040000fa
:100400004f0221000eff27000e01880000000000af
:10041000000020000000e000020032000001200087
:10042000200288000c000700404d20000100200041
:100430000f000700000020000000e0000200320072
:100440000000020000000000ac03020000000000f9
:100450000040da000000fe00200020000000e00064
:100460000200320010002000900188000000060009
:10047000a1028800800078000000eb001a0037001d
:10048000e280400054a0b4009101ba00e280400034
:1004900054a0b4009102ba00e280400054a0b4001d
:1004a0000002eb00472bde00f507b200a601880032
:1004b000602ce10008003a000049eb000201e8006e
:1004c000020039003420ec0002f0a0008301e900b2
:1004d000f9ff3e00040037006128e100010032000e
:1004e0000082eb00040007001101ba000200e000e6
:1004f000e3ff3a000000060004d0a300e20f490029
:100500001c003900810278003549ba000201e80078
:10051000020039003420ec0002f0a0008301e90061
:100520000f0032002549ba000201e800020039003c
:100530003420ec0002f0a0008301e9000800320042
:100540000400e0000600320015c9ba000201e8000c
:10055000020039003420ec0002f0a0008301e90021
:100560008180e80054a0b4000300e000e2ff3a00fc
:10057000000006009102ba00055978008301e900e5
:10058000f7ff3200c82ade00055978008301e90030
:10059000f3ff32000400e000f1ff320011d9ba008d
:1005a000eeff3700809fbe00821f78003200f80007
:1005b0003400f80010002000a00188001000200086
:1005c00090018800000000000000fa000388a900e4
:1005d000a07080004500de006140600011c0b300e3
:1005e00000c05000614060000080fb0061006000be
:1005f0004500dd00a2708000f1fd2f008100610048
:1006000001007000a07088000080fa003400f9003a
:100610003200f9004f0178004f00be000040060094
:100620000000fa008001eb00024020008000eb0097
:1006300000002800d200070080808000d80007005a
:100640008000eb000000eb00d20007000080fa0001
:10065000000006002200fa00f08e2f00000f780044
:10066000f08b20001007980030202600200798000b
:10067000c0ef2f00300798001000200040079800be
:1006800020002000500798000000eb006007980051
:100690000000eb00700798000000eb00000f9800ce
:1006a0000000eb00100f98000000eb00200f9800f6
:1006b0000000eb00300f98000000eb00400f9800a6
:1006c0000000eb00500f98000000eb00600f980056
:1006d0000000eb00700f98000000eb00001798007e
:1006e0008e109000811f7800fe089000811f780016
:1006f000ee089000811f7800de089000811f7800ce
:10070000ce089000811f7800be089000811f7800fd
:10071000ae089000811f78009e089000811f78002d
:100720008e089000811f7800fe0390006e039000f9
:10073000de0290004e029000be0190002e0190005b
:100740009e0090001e00780075000700f287570099
:100750000080fa00000006000000fa00000ea80069
:10076000002ea800004ea900006ea900008ea9006e
:10077000100ea900102ea900104ea9001e6ea9008f
:100780001a6ea800106ea800108ea90010aea90065
:1007900010cea90010eea900110ea900112ea9007b
:1007a000114ea900116ea900118ea90011aea90069
:1007b00011cea90011eea900313a800000e02f000f
:1007c000008060000000a000303a8800203a8000dd
:1007d0000060a0000070a100203a8800213a80004b
:1007e00000fe2f0000806000203a8800413a80001f
:1007f00000fc2f0000806000403a880000000000ec
:10080000113a800000022000008060000000e0003b
:10081000fbff320014aea900002020008080880079
:10082000c03c2000908088002021ef00000980005b
:100830000040a0000050a00000098800204e2e00bb
:10084000e0088800704280000000a0000010a000b6
:100850000020a100704288000388a9002388a80016
:1008600021e1a8006eff07007aff07000040eb00bf
:100870003d000700a080880010c0b3003a000700c8
:10088000b08088000230ef000c0037000040eb0021
:10089000350007006101b800608080007180800031
:1008a00002004000838048006080880071808800da
:1008b000108080000000e800108088001180800017
:1008c000f07f2000808f5000f0ff340060808000b7
:1008d00071808000e00f5000e08f580004003d0060
:1008e000f27f2000030020000000410081804900c9
:1008f0004509dd004b00de0000007100cb88de0002
:1009000000007800a08088000c30ef000e30ef006f
:1009100090708000d5ff37000040da000000fe0034
:10092000747088000000fa00f57088005fb29700cc
:10093000741988004fb297000080fa00841988006b
:10094000931988006202600022198800111988003a
:1009500000198800d0ff2f002003b60000007200ad
:100960000019880000000600013020000080fb0014
:100970000000400001004000100078000000060068
:100980000060880011608800226088003360880061
:1009900000000600506188006161880000000600c8
:0809a000506088000000060011
:020000040000fa
:1009a800001000002400000080000000000000008b
:020000040000fa
:02000004000af0
:04afe000cdff0000a1
:020000040000fa
:02000004000af0
:04afe8007fff0000e7
:020000040000fa
:02000004000af0
:04aff000b9ff0000a5
:00000001FF
